S00D0000736E616B652E7372656305
S11300000C9434000C9451000C9451000C94510045
S11300100C9451000C9451000C9451000C94510018
S11300200C9451000C9451000C9451000C94510008
S11300300C9451000C948E000C9451000C945100BB
S11300400C9451000C9451000C9451000C945100E8
S11300500C9451000C9451000C9451000C945100D8
S11300600C9451000C94510011241FBECFEFD8E022
S1130070DEBFCDBF11E0A0E0B1E0E8E9F3E002C0EB
S113008005900D92A032B107D9F721E0A0E2B1E0CA
S113009001C01D92A232B207E1F70E9478000C94CD
S11300A0CA010C940000FC01408121E030E002C050
S11300B0220F331F6A95E2F7242B20830895FC0155
S11300C0908121E030E002C0220F331F6A95E2F7ED
S11300D02095292320830895FC01408121E030E00C
S11300E002C0220F331F6A95E2F7242B2083089560
S11300F00E94C80040E060E080E00E94D800E1E88F
S1130100F0E080818B7F8083808183608083EFE651
S1130110F0E08081816080837894FFCF1F920F92FA
S11301200FB60F9211242F933F934F935F936F93C6
S11301307F938F939F93AF93BF93EF93FF9380919C
S11301402101843018F41092200103C091E09093AF
S11301502001609120010E94550180912101873086
S113016018F01092210103C08F5F80932101FF9149
S1130170EF91BF91AF919F918F917F916F915F911B
S11301804F913F912F910F900FBE0F901F90189594
S113019064E08AE290E00E94530067E08AE290E023
S11301A00E94530060E084E290E00E9453000895AE
S11301B01F93CF93DF93411106C0E82FF0E0EA5E6E
S11301C0FE4F108105C0E82FF0E0E45FFE4F108180
S11301D0E62FF0E0E85FFE4FD08164E08BE290E030
S11301E00E945F0067E08BE290E00E945F0060E0A5
S11301F085E290E00E945F0085E08A95F1F70000B7
S1130200C8E010FF06C060E085E290E00E946C0048
S113021005C060E085E290E00E945F0095E09A9559
S1130220F1F7000067E08BE290E00E946C0085E04B
S11302308A95F1F7000067E08BE290E00E945F008E
S11302401695C150F1F6C8E0D0FF06C060E085E223
S113025090E00E946C0005C060E085E290E00E949E
S11302605F0095E09A95F1F7000067E08BE290E07B
S11302700E946C0085E08A95F1F7000067E08BE24C
S113028090E00E945F00D695C150F1F664E08BE2E5
S113029090E00E946C008FE99FE00197F1F700C0A5
S11302A00000DF91CF911F9108951F93CF93DF93A7
S11302B0E82FF0E0E050FF4F1081E62FF0E0E85F18
S11302C0FE4FD08164E08BE290E00E945F0067E023
S11302D08BE290E00E945F0060E085E290E00E9483
S11302E05F0085E08A95F1F70000C8E010FF06C0C2
S11302F060E085E290E00E946C0005C060E085E269
S113030090E00E945F0095E09A95F1F7000067E0A5
S11303108BE290E00E946C0085E08A95F1F7000082
S113032067E08BE290E00E945F001695C150F1F601
S1130330C8E0D0FF06C060E085E290E00E946C0057
S113034005C060E085E290E00E945F0095E09A9528
S1130350F1F7000067E08BE290E00E946C0085E01A
S11303608A95F1F7000067E08BE290E00E945F005D
S1130370D695C150F1F664E08BE290E00E946C00E7
S11303808FE99FE00197F1F700C00000DF91CF9162
S10B03901F910895F894FFCFBA
S11303987FBFDFEFEFF7FB7F10204080029E240C25
S11303A89848401E0018039F250D9949411F0119BB
S9030000FC
