S00F00007365676D656E742E7372656322
S11300000C9434000C9451000C9451000C94510045
S11300100C9451000C9451000C9451000C94510018
S11300200C9451000C9451000C9451000C94510008
S11300300C9451000C9499000C9451000C945100B0
S11300400C94D8000C9451000C9451000C94510061
S11300500C9451000C9451000C9451000C945100D8
S11300600C9451000C94510011241FBECFEFD8E022
S1130070DEBFCDBF11E0A0E0B1E0E4E6F3E002C0F2
S113008005900D92A831B107D9F721E0A8E1B1E0BC
S113009001C01D92AD31B207E1F70E9478000C94C3
S11300A0B0010C940000FC01408121E030E002C06A
S11300B0220F331F6A95E2F7242B20830895FC0155
S11300C0908121E030E002C0220F331F6A95E2F7ED
S11300D02095292320830895FC01408121E030E00C
S11300E002C0220F331F6A95E2F7242B2083089560
S11300F00E94230140E060E080E00E943301E1E8D7
S1130100F0E080818C7F8083808184608083EFE64F
S1130110F0E080818160808385B58C7F85BD85B565
S1130120846085BDEEE6F0E0808181608083789410
S1130130FFCF1F920F920FB60F9211248F938091CD
S11301401C018F5F8A3018F480931C0107C0109241
S11301501C0180911B018F5F80931B0180911B0107
S1130160863048F080911A018F5F80931A011092B3
S11301701C0110921B0180911A018A3038F0809181
S113018019018F5F8093190110921A01809119014E
S1130190863040F01092190110921A0110921C013D
S11301A010921B018F910F900FBE0F901F90189506
S11301B01F920F920FB60F9211242F933F934F93D8
S11301C05F936F937F938F939F93AF93BF93EF93BB
S11301D0FF9360911801611106C040E080911C01F9
S11301E00E94330115C0613031F440E080911B015D
S11301F00E9433010DC0623031F441E080911A0154
S11302000E94330105C040E0809119010E9433012E
S1130210809118018F5F843019F08093180102C017
S113022010921801FF91EF91BF91AF919F918F911F
S11302307F916F915F914F913F912F910F900FBEDE
S11302400F901F90189564E08AE290E00E9453009A
S113025067E08AE290E00E94530060E084E290E06C
S11302600E94530008951F93CF93DF93411106C05A
S1130270E82FF0E0E25FFE4F108105C0E82FF0E0C8
S1130280EC5FFE4F1081E62FF0E0E050FF4FD0818D
S113029064E08BE290E00E945F0067E08BE290E014
S11302A00E945F0060E085E290E00E945F0085E0CC
S11302B08A95F1F70000C8E010FF06C060E085E20F
S11302C090E00E946C0005C060E085E290E00E942E
S11302D05F0095E09A95F1F7000067E08BE290E00B
S11302E00E946C0085E08A95F1F7000067E08BE2DC
S11302F090E00E945F001695C150F1F6C8E0D0FF6F
S113030006C060E085E290E00E946C0005C060E0F9
S113031085E290E00E945F0095E09A95F1F7000075
S113032067E08BE290E00E946C0085E08A95F1F72B
S1130330000067E08BE290E00E945F00D695C15018
S1130340F1F664E08BE290E00E946C008FE99FE09C
S11303500197F1F700C00000DF91CF911F9108953C
S1070360F894FFCF3B
S113036410204080029E240C9848401E0018039FCD
S10B0374250D9949411F0119EF
S9030000FC
