S00C0000756172742E737265635C
S11300000C9434000C9451000C9451000C94510045
S11300100C9451000C9451000C9451000C94510018
S11300200C9451000C9451000C9451000C94510008
S11300300C9451000C943F010C9451000C94510009
S11300400C9451000C9451000C941C020C944A0220
S11300500C9451000C945E010C9451000C945100CA
S11300600C9451000C94510011241FBECFEFD8E022
S1130070DEBFCDBF11E0A0E0B1E0E0EDF5E002C0ED
S113008005900D92A23BB107D9F721E0A2EBB1E0B4
S113009001C01D92A83FB207E1F70E94F6000C943C
S11300A0E6020C940000299A000029980895CF9341
S11300B0C82F662311F0289A01C02898549A559A9B
S11300C0569A579A5F985E985D985C98CC230CF486
S11300D05F9AC6FD5E9AC5FD5D9AC4FD5C9A0E9456
S11300E053005F985E985D985C98C3FD5F9AC2FD6B
S11300F05E9AC1FD5D9AC0FD5C9A0E9453005C9AB1
S11301005D9A5E9A5F9A8AEF8A95F1F7CF91089586
S113011060E00E9457000895611104C080580E9455
S11301208800089580540E948800089581E00E9408
S11301308800089561E00E9457000895CF93DF93EB
S1130140EC012196FC018081882329F00E949A0009
S113015089918111FBCFDF91CF910895CF93C82F5F
S1130160209A559A219A549A559A569A579A8FE9F1
S11301709FE00197F1F700C000005D9A5C9A0E942D
S1130180530081EE94E00197F1F700C000000E9453
S1130190530095E19A95F1F700000E94530085E120
S11301A08A95F1F700005C980E94530095E19A95B6
S11301B0F1F7000088E20E94880088E00E9488002D
S11301C00E94960086E00E9488008C2F0E9488007E
S11301D0CF9108959C019FE080E020FD8F5F3695CC
S11301E027959150D1F78095817008958CE00E94F5
S11301F0AE0060E081E00E948C0080E091E00E940B
S11302009E0061E081E00E948C0087E091E00E9402
S11302109E0060E088E00E948C0084E191E00E94EE
S11302209E0060E08DE00E948C0086E191E00E94D7
S11302309E00ECE7F0E08081806480838081807F91
S11302408083EAE7F0E08081806880838081886031
S11302508083808187608083EFE6F0E08081816025
S11302608083E1E8F0E080818B7F808380818360FC
S1130270808387E690E00E9474027894FFCF1F92F7
S11302800F920FB60F9211248F93EF93FF938091E7
S1130290B201833040F01092B201EAE7F0E08081CD
S11302A08064808303C08F5F8093B201FF91EF91DC
S11302B08F910F900FBE0F901F9018951F920F9261
S11302C00FB60F9211240F931F932F933F934F93C5
S11302D05F936F937F938F939F93AF93BF93EF93AA
S11302E0FF93CF93DF9300D000D0CDB7DEB780E388
S11302F090E39A8389839C838B8300917800109187
S113030079004AE0BE016F5F7F4FC8010E94B102CD
S113031060E088E00E948C0088E191E00E949E00E9
S113032060E088E00E948C00CE0101960E949E004D
S113033040E1BE016F5F7F4FC8010E94B10260E0DF
S11303408DE00E948C0088E191E00E949E0060E0B4
S11303508DE00E948C00CE0101960E949E00C8018F
S11303600E94EA004AE0BE016F5F7F4F90E00E9466
S1130370B10261E08DE00E948C0088E191E00E946E
S11303809E0061E08DE00E948C00CE0101960E94E7
S11303909E000233110528F48DE191E00E94A2022F
S11303A02EC0C801C3978336910528F486E391E0F3
S11303B00E94A20224C0C801895C91098336910578
S11303C028F48CE491E00E94A20219C0C8018F5560
S11303D091408336910528F484E691E00E94A202BC
S11303E00EC0095512400336110528F48CE791E03C
S11303F00E94A20204C086E991E00E94A2028EEA51
S113040091E00E94A2020F900F900F900F90DF9145
S1130410CF91FF91EF91BF91AF919F918F917F9178
S11304206F915F914F913F912F911F910F910F9079
S11304300FBE0F901F9018951F920F920FB60F9238
S113044011242F938F939F93EF93FF938091C00078
S11304502091C6008C71E091B501EF5FEF7190912E
S1130460B401E91739F0E093B501F0E0E854FE4F28
S1130470208301C082E09091B301892B8093B30162
S1130480FF91EF919F918F912F910F900FBE0F903D
S11304901F9018951F920F920FB60F9211248F93ED
S11304A09F93EF93FF939091B7018091B6019817B2
S11304B069F0E091B601EF5FEF71E093B601F0E00F
S11304C0E852FE4F80818093C60005C0E1ECF0E065
S11304D080818F7D8083FF91EF919F918F910F9009
S11304E00FBE0F901F9018951092B7011092B6018D
S11304F01092B5011092B40199231CF422E02093C8
S1130500C00090789093C5008093C40088E98093DC
S1130510C10086E08093C20008952091B7012F5F47
S11305202F719091B6012917E1F3E22FF0E0E85220
S1130530FE4F80832093B701E1ECF0E0808180627C
S113054080830895CF93DF93EC018881882331F071
S113055021960E948D0289918111FBCFDF91CF9169
S11305600895BB274A3031F4992322F4BDE29095D3
S113057081959F4F0C94BD02BB27FB015527AA27E9
S1130580880F991FAA1FA41710F0A41B839550511C
S1130590B9F7A05DAA3308F0A95DA193009779F794
S11305A0B111B1931192CB010C94D602DC01FC0180
S11305B0672F71917723E1F7329704C07C916D9393
S11305C070836291AE17BF07C8F30895F894FFCF04
S11305D076616C75653A005061726974792062695C
S11305E0743A2000610062002020202000526967D4
S11305F0687420627574746F6E20776173207072F2
S1130600657373656400557020627574746F6E2031
S1130610776173207072657373656400446F776EDD
S113062020627574746F6E207761732070726573C5
S1130630736564004C65667420627574746F6E2013
S113064077617320707265737365640053656C65BC
S1130650637420627574746F6E2077617320707296
S11306606573736564004E6F6E6520627574746F94
S11306706E207761732070726573736564000D0A70
S1050680000074
S9030000FC
