S00D0000626C696E6B2E7372656307
S11300000C9434000C943E000C943E000C943E007E
S11300100C943E000C943E000C943E000C943E0064
S11300200C943E000C943E000C943E000C943E0054
S11300300C943E000C943E000C943E000C943E0044
S11300400C943E000C943E000C943E000C943E0034
S11300500C943E000C943E000C943E000C943E0024
S11300600C943E000C943E0011241FBECFEFD8E048
S1130070DEBFCDBF0E9440000C9419010C94000017
S1130080259A2D9880E22FEF3BE49DE121503040EA
S11300909040E1F700C0000095B1982795B92FEF83
S11300A033ED90E3215030409040E1F700C0000070
S11300B095B1982795B92FEF3BE49DE1215030404D
S11300C09040E1F700C0000095B1982795B92FEF53
S11300D039E698E1215030409040E1F700C000003B
S11300E095B1982795B92FEF3BE49DE1215030401D
S11300F09040E1F700C0000095B1982795B92FEF23
S113010039E698E1215030409040E1F700C000000A
S113011095B1982795B92FEF3BE49DE121503040EC
S11301209040E1F700C0000095B1982795B92FEFF2
S113013039E698E1215030409040E1F700C00000DA
S113014095B1982795B92FEF3BE49DE121503040BC
S11301509040E1F700C0000095B1982795B92FEFC2
S113016039E698E1215030409040E1F700C00000AA
S113017095B1982795B92FEF3BE49DE1215030408C
S11301809040E1F700C0000095B1982795B92FEF92
S113019039E698E1215030409040E1F700C000007A
S11301A095B1982795B92FEF3BE49DE1215030405C
S11301B09040E1F700C0000095B1982795B92FEF62
S11301C033ED90E3215030409040E1F700C000004F
S11301D095B1982795B92FEF3BE49DE1215030402C
S11301E09040E1F700C0000095B1982795B92FEF32
S11301F033ED90E3215030409040E1F700C000001F
S113020095B1982795B92FEF3BE49DE121503040FB
S11302109040E1F700C0000095B1982795B92FEF01
S113022033ED90E3215030409040E1F700C00000EE
S10902302ACFF894FFCF71
S9030000FC
