S00B00006C63642E73726563E6
S11300000C9434000C9451000C9451000C94510045
S11300100C9451000C9451000C9451000C94510018
S11300200C9451000C94F9000C9451000C94510060
S11300300C9451000C9451000C9451000C945100F8
S11300400C9451000C9451000C9451000C945100E8
S11300500C9451000C9451000C9451000C945100D8
S11300600C9451000C94510011241FBECFEFD8E022
S1130070DEBFCDBF11E0A0E0B1E0EAE4F4E002C0ED
S113008005900D92A630B107D9F721E0A6E0B1E0C2
S113009001C01D92AA30B207E1F70E94EA000C9455
S11300A023020C940000299A000029980895CF9304
S11300B0C82F662311F0289A01C02898549A559A9B
S11300C0569A579A5F985E985D985C98CC230CF486
S11300D05F9AC6FD5E9AC5FD5D9AC4FD5C9A0E9456
S11300E053005F985E985D985C98C3FD5F9AC2FD6B
S11300F05E9AC1FD5D9AC0FD5C9A0E9453005C9AB1
S11301005D9A5E9A5F9A8AEF8A95F1F7CF91089586
S113011060E00E9457000895611104C080580E9455
S11301208800089580540E948800089581E00E9408
S11301308800089561E00E9457000895CF93DF93EB
S1130140EC012196FC018081882329F00E949A0009
S113015089918111FBCFDF91CF910895CF93C82F5F
S1130160209A559A219A549A559A569A579A8FE9F1
S11301709FE00197F1F700C000005D9A5C9A0E942D
S1130180530081EE94E00197F1F700C000000E9453
S1130190530095E19A95F1F700000E94530085E120
S11301A08A95F1F700005C980E94530095E19A95B6
S11301B0F1F7000088E20E94880088E00E9488002D
S11301C00E94960086E00E9488008C2F0E9488007E
S11301D0CF9108958CE00E94AE00E0E7F0E08081CA
S11301E081608083E1EBF0E0808187608083789494
S11301F0FFCF1F920F920FB60F921124EF92FF922E
S11302000F931F932F933F934F935F936F937F931A
S11302108F939F93AF93BF93EF93FF93CF93DF930A
S113022000D0CDB7DEB780E290E29A8389838091D3
S113023009018F5F863018F480930901B6C01092CB
S11302400901809108018F5F8A3018F480930801B6
S113025007C010920801809107018F5F8093070106
S1130260809107018C3338F0809106018F5F809371
S1130270060110920701809106018C3310F0109250
S11302800601809106014AE0BE016F5F7F4F90E056
S11302900E94EE01809106018A3060F460E081E002
S11302A00E948C0080E30E949A0060E082E00E9439
S11302B08C0004C060E081E00E948C00CE010196B5
S11302C00E949E0060E083E00E948C008AE30E940A
S11302D09A00809107014AE0BE016F5F7F4F90E072
S11302E00E94EE01809107018A3060F460E084E0AE
S11302F00E948C0080E30E949A0060E085E00E94E6
S11303008C0004C060E084E00E948C00CE01019661
S11303100E949E008EE20E949A00809108014AE0A9
S1130320BE016F5F7F4F90E00E94EE0160E087E0C6
S11303300E948C00CE0101960E949E0080910701CC
S1130340889F700111248701811108C060E08BE04F
S11303500E948C0080E091E00E949E004AE0BE0171
S11303606F5F7F4FC7010E94EE010A30110528F428
S113037060E08EE00E948C0014C00436110528F45D
S113038060E08DE00E948C000CC0083E134028F40D
S113039060E08CE00E948C0004C060E08BE00E946E
S11303A08C00CE0101960E949E000F900F90DF9169
S11303B0CF91FF91EF91BF91AF919F918F917F91D9
S11303C06F915F914F913F912F911F910F91FF90EA
S11303D0EF900F900FBE0F901F901895BB274A30D7
S11303E031F4992322F4BDE2909581959F4F0C94AA
S11303F0FA01BB27FB015527AA27880F991FAA1FBB
S1130400A41710F0A41B83955051B9F7A05DAA332B
S113041008F0A95DA193009779F7B111B1931192F6
S1130420CB010C941302DC01FC01672F719177233B
S1130430E1F7329704C07C916D9370836291AE179B
S10D0440BF07C8F30895F894FFCF36
S109044A303030300000E8
S9030000FC
