S00F000070726F6A6563742E737265631E
S11300000C9434000C9451000C9451000C94510045
S11300100C9451000C9451000C9451000C94510018
S11300200C9451000C9451000C9451000C94510008
S11300300C9451000C9402030C9451000C94510044
S11300400C94FC030C9451000C9470040C949E04C6
S11300500C9451000C9451000C9451000C945100D8
S11300600C9451000C94510011241FBECFEFD8E022
S1130070DEBFCDBF12E0A0E0B1E0EEE0FAE002C0E6
S113008005900D92A233B107D9F722E0A2E3B2E0C2
S113009001C01D92AE3DB207E1F70E949E020C948E
S11300A005050C940000FC01408121E030E002C011
S11300B0220F331F6A95E2F7242B20830895FC0155
S11300C0808121E030E002C0220F331F6A95E2F7FD
S11300D0922F90958923808380818181282B21838D
S11300E00895FC01908121E030E002C0220F331F0B
S11300F06A95E2F72095292320830895FC01408125
S113010021E030E002C0220F331F6A95E2F7242B6E
S113011020830895FC01808190E002C09595879525
S11301206A95E2F781700895EF92FF920F931F93FF
S1130130CF93DF93FC01062F172FC22FD32FE42E6A
S1130140F52E9C012C5F3F4F40E050E060E0919120
S1130150D8018D918D01981301C06F5FD7018D91E6
S11301607D01981301C05F5F8991981301C04F5FAF
S1130170E217F30761F791E0643009F090E081E061
S1130180543009F080E0892B91E0443009F090E08C
S1130190892BDF91CF911F910F91FF90EF900895DC
S11301A060E088E290E00E94710061E088E290E003
S11301B00E947E0062E088E290E00E947E0063E09C
S11301C086E290E00E948A0081110FC083EC99E0DE
S11301D00197F1F700C0000063E086E290E00E941E
S11301E08A008823C9F381E3089564E086E290E0FD
S11301F00E948A0081110FC083EC99E00197F1F706
S113020000C0000064E086E290E00E948A00882337
S1130210C9F384E3089565E086E290E00E948A00D1
S113022081110FC083EC99E00197F1F700C0000041
S113023065E086E290E00E948A008823C9F387E3A0
S1130240089566E086E290E00E948A0081110FC062
S113025083EC99E00197F1F700C0000066E086E2C4
S113026090E00E948A008823C9F38AE2089560E03E
S113027088E290E00E947E0061E088E290E00E94C3
S1130280710062E088E290E00E947E0063E086E212
S113029090E00E948A0081110FC083EC99E00197DD
S11302A0F1F700C0000063E086E290E00E948A005B
S11302B08823C9F382E3089564E086E290E00E9413
S11302C08A0081110FC083EC99E00197F1F700C017
S11302D0000064E086E290E00E948A008823C9F36B
S11302E085E3089565E086E290E00E948A0081112A
S11302F00FC083EC99E00197F1F700C0000065E0BE
S113030086E290E00E948A008823C9F388E3089576
S113031066E086E290E00E948A0081110FC083ECBF
S113032099E00197F1F700C0000066E086E290E0F2
S11303300E948A008823C9F380E3089560E088E27C
S113034090E00E947E0061E088E290E00E947E00DE
S113035062E088E290E00E94710063E086E290E04F
S11303600E948A0081110FC083EC99E00197F1F794
S113037000C0000063E086E290E00E948A008823C7
S1130380C9F383E3089564E086E290E00E948A0062
S113039081110FC083EC99E00197F1F700C00000D0
S11303A064E086E290E00E948A008823C9F386E331
S11303B0089565E086E290E00E948A0081110FC0F2
S11303C083EC99E00197F1F700C0000065E086E254
S11303D090E00E948A008823C9F389E3089566E0C7
S11303E086E290E00E948A0081110FC083EC99E0BC
S11303F00197F1F700C0000066E086E290E00E94F9
S11304008A008823C9F383E2089588E50895299A28
S1130410000029980895CF93C82F662311F0289AD5
S113042001C02898549A559A569A579A5F985E989C
S11304305D985C98CC230CF45F9AC6FD5E9AC5FD6A
S11304405D9AC4FD5C9A0E9407025F985E985D986D
S11304505C98C3FD5F9AC2FD5E9AC1FD5D9AC0FDC2
S11304605C9A0E9407025C9A5D9A5E9A5F9A8AEF90
S11304708A95F1F7CF91089560E00E940B020895E8
S1130480611104C080580E943C02089580540E9467
S11304903C02089581E00E943C02089561E00E94BC
S11304A00B020895CF93DF93EC012196FC01808128
S11304B0882329F00E944E0289918111FBCFDF919C
S11304C0CF910895CF93C82F209A559A219A549A80
S11304D0559A569A579A8FE99FE00197F1F700C011
S11304E000005D9A5C9A0E94070281EE94E00197F5
S11304F0F1F700C000000E94070295E19A95F1F718
S113050000000E94070285E18A95F1F700005C98DB
S11305100E94070295E19A95F1F7000088E20E9493
S11305203C0288E00E943C020E944A0286E00E944B
S11305303C028C2F0E943C02CF91089562E08AE233
S113054090E00E94530062E08BE290E00E94710010
S113055063E08AE290E00E94530063E08BE290E063
S11305600E9471008CE00E94620260E081E00E94BF
S1130570400280E191E00E94520260E087E290E054
S11305800E94530061E087E290E00E94530062E021
S113059087E290E00E94530063E087E290E00E94CB
S11305A05F0064E087E290E00E945F0065E087E21C
S11305B090E00E945F0066E087E290E00E945F00A6
S11305C063E084E290E00E945300E1E8F0E080817F
S11305D08A7F8083808182608083EFE6F0E080817F
S11305E08160808385B58D7F85BD85B5856085BD3A
S11305F0789487E690E00E94C80487E191E00E9425
S1130600F604FFCF1F920F920FB60F9211242F936F
S11306103F934F935F936F937F938F939F93AF9386
S1130620BF93CF93DF93EF93FF930E94D000C82F23
S1130630883509F4A6C0809137028111A2C0809147
S11306403602813059F028F0823069F0833081F02D
S113065013C08CE291E00E94F6040EC083E491E0A2
S11306600E94F60409C08BE591E00E94F60404C0E0
S113067082E791E00E94F60480913602E82FF0E0D0
S1130680E45FFE4FC08360E0895F0E9440028C2FCC
S11306900E944E02809136028F5F80933602813031
S11306A039F41092350210923402809333026FC0F1
S11306B0843009F06CC08AE891E00E94F604CCE032
S11306C0D1E088810E94E10489810E94E1048A8149
S11306D00E94E1048B810E94E1048FE092E00E9479
S11306E0F60481E08093370210923302EEE6F0E0E4
S11306F080818160808320E031E044E051E068E063
S113070071E0CE010E9494008130F9F481EA91E015
S11307100E94F60481E08093380263E085E290E071
S11307200E947E0062E08BE290E00E947E0063E023
S11307308BE290E00E94710061E081E00E9440023F
S113074080EC91E00E94520218C08DEC91E00E946E
S1130750F6041092380261E081E00E94400280EECB
S113076091E00E94520263E08BE290E00E947E00DE
S113077062E08BE290E00E9471008FE092E00E94C0
S1130780F60480913602843011F41092360280917E
S1130790340290913502019690933502809334028D
S11307A0843F9140B1F480913302813091F41092EE
S11307B03502109234021092360260E087E00E9403
S11307C040028AE192E00E9452028BEE91E00E9484
S11307D0F604FF91EF91DF91CF91BF91AF919F917B
S11307E08F917F916F915F914F913F912F910F90D6
S11307F00FBE0F901F9018951F920F920FB60F9275
S113080011242F933F934F935F936F937F938F9311
S11308109F93AF93BF93EF93FF93809132028C3BEE
S113082009F048C080913802813041F510923202BB
S113083063E085E290E00E947100EEE6F0E08081E2
S11308408E7F808362E08BE290E00E94710060E022
S113085087E00E9440028AE192E00E94520261E035
S113086081E00E94400282E192E00E9452021092D2
S113087038028FE192E00E94F6041AC0EEE6F0E03E
S113088080818E7F808361E081E00E94400282E16A
S113089092E00E94520260E087E00E9440028AE1F6
S11308A092E00E94520263E08BE290E00E947100A9
S11308B010923702809132028F5F80933202FF914F
S11308C0EF91BF91AF919F918F917F916F915F91C4
S11308D04F913F912F910F900FBE0F901F9018953D
S11308E01F920F920FB60F9211242F938F939F9301
S11308F0EF93FF938091C0002091C6008C71E0912A
S11309003B02EF5FEF7190913A02E91739F0E093FF
S11309103B02F0E0E25CFD4F208301C082E0909155
S11309203902892B80933902FF91EF919F918F9126
S11309302F910F900FBE0F901F9018951F920F923A
S11309400FB60F9211248F939F93EF93FF9390917F
S11309503D0280913C02981769F0E0913C02EF5F00
S1130960EF77E0933C02F0E0E25AFD4F8081809300
S1130970C60005C0E1ECF0E080818F7D8083FF91AB
S1130980EF919F918F910F900FBE0F901F9018952C
S113099010923D0210923C0210923B0210923A02D5
S11309A099231CF422E02093C00090789093C50012
S11309B08093C40088E98093C10086E08093C200DC
S11309C0089520913D022F5F2F7790913C022917C3
S11309D0E1F3E22FF0E0E25AFD4F808320933D02E1
S11309E0E1ECF0E08081806280830895CF93DF930F
S11309F0EC018881882331F021960E94E1048991D9
S1110A008111FBCFDF91CF910895F894FFCFC1
S1130A0E36333837353637383132333458585858F8
S1130A1E434F44453A200053797374656D20696ED3
S1130A2E697469616C697A65640D0A00466972734A
S1130A3E7420646967697420696E73657274656481
S1130A4E0D0A005365636F6E6420646967697420D0
S1130A5E696E7365727465640D0A00546869726414
S1130A6E20646967697420696E7365727465640DB8
S1130A7E0A00466F75727468206469676974206928
S1130A8E6E7365727465640D0A0054686520636F35
S1130A9E646520696E7365727465642069733A20A7
S1130AAE0054686520636F646520697320636F72F8
S1130ABE726563742E20446F6F72206F70656E00C2
S1130ACE434F525245435420434F444500546865A6
S1130ADE20636F64652069732077726F6E672E00D2
S1130AEE57524F4E4720434F44450054696D65207D
S1130AFE666F7220696E74726F647563696E6720B7
S1130B0E636F64652065786365656465642E200D86
S1130B1E0A002020202020202020202020200043F6
S1130B2E6C6F73696E6720646F6F722E2E2E0D0AB2
S1050B3E0000B1
S9030000FC
