S00E000074696D6572732E7372656382
S11300000C9434000C9449000C9449000C9449005D
S11300100C9449000C9449000C9449000C94490038
S11300200C9449000C9449000C9449000C94490028
S11300300C9449000C94D2000C9449000C9449008F
S11300400C9449000C9449000C9449000C94490008
S11300500C9449000C9449000C9449000C944900F8
S11300600C9449000C94490011241FBECFEFD8E032
S1130070DEBFCDBF11E0A0E0B1E0EEE3F2E002C0EC
S113008005900D92A230B107D9F70E948C000C9410
S11300901D010C940000FC01408121E030E002C00D
S11300A0220F331F6A95E2F7242B20830895FC0165
S11300B0808121E030E002C0220F331F6A95E2F70D
S11300C0922F90958923808380818181282B21839D
S11300D00895FC01908121E030E002C0220F331F1B
S11300E06A95E2F72095292320830895FC01408135
S11300F021E030E002C0220F331F6A95E2F7242B7F
S113010020830895FC01808190E002C09595879535
S11301106A95E2F78170089561E084E290E00E94BC
S11301204B0061E085E290E00E94760062E084E2A8
S113013090E00E944B0062E085E290E00E9469003A
S113014063E084E290E00E944B0063E085E290E08B
S11301500E94690064E084E290E00E944B0064E045
S113016085E290E00E94690065E084E290E00E94EC
S11301704B0065E085E290E00E94690060E08AE25D
S113018090E00E945700E1E8F0E080818C7F80835A
S1130190808184608083EFE6F0E0808181608083E9
S11301A07894FFCF1F920F920FB60F9211242F93C2
S11301B03F934F935F936F937F938F939F93AF93EB
S11301C0BF93EF93FF9380910001853029F482E07F
S11301D085B91092000108C085B1880F85B9809156
S11301E000018F5F8093000160E089E290E00E944B
S11301F08200811109C0E1E8F0E080818B7F808377
S113020080818360808308C0E1E8F0E080818C7F96
S11302108083808184608083FF91EF91BF91AF914F
S11302209F918F917F916F915F914F913F912F910A
S11102300F900FBE0F901F901895F894FFCFFB
S105023E0100B9
S9030000FC
