S01400006B6E696768745F72696465722E7372656316
S11300000C9434000C943E000C943E000C943E007E
S11300100C943E000C943E000C943E000C943E0064
S11300200C943E000C943E000C943E000C943E0054
S11300300C943E000C943E000C943E000C943E0044
S11300400C943E000C943E000C943E000C943E0034
S11300500C943E000C943E000C943E000C943E0024
S11300600C943E000C943E0011241FBECFEFD8E048
S1130070DEBFCDBF0E944D000C946A000C940000BA
S113008085B1880F85B92FEF89E698E1215080402A
S11300909040E1F700C00000089584B18F6184B9F5
S11300A02C988AB11AB85B9AC1E04B99FECFC5B9B6
S11300B02FEF89E698E1215080409040E1F700C09D
S11300C000000E9440000E9440000E9440000E94E4
S10B00D04000EBCFF894FFCFD0
S9030000FC
